{
  "_format": "hh-sol-artifact-1",
  "contractName": "StakingToken",
  "sourceName": "contracts/StakingToken.sol",
  "abi": [
    {
      "inputs": [],
      "stateMutability": "nonpayable",
      "type": "constructor"
    },
    {
      "inputs": [
        {
          "internalType": "address",
          "name": "spender",
          "type": "address"
        },
        {
          "internalType": "uint256",
          "name": "allowance",
          "type": "uint256"
        },
        {
          "internalType": "uint256",
          "name": "needed",
          "type": "uint256"
        }
      ],
      "name": "ERC20InsufficientAllowance",
      "type": "error"
    },
    {
      "inputs": [
        {
          "internalType": "address",
          "name": "sender",
          "type": "address"
        },
        {
          "internalType": "uint256",
          "name": "balance",
          "type": "uint256"
        },
        {
          "internalType": "uint256",
          "name": "needed",
          "type": "uint256"
        }
      ],
      "name": "ERC20InsufficientBalance",
      "type": "error"
    },
    {
      "inputs": [
        {
          "internalType": "address",
          "name": "approver",
          "type": "address"
        }
      ],
      "name": "ERC20InvalidApprover",
      "type": "error"
    },
    {
      "inputs": [
        {
          "internalType": "address",
          "name": "receiver",
          "type": "address"
        }
      ],
      "name": "ERC20InvalidReceiver",
      "type": "error"
    },
    {
      "inputs": [
        {
          "internalType": "address",
          "name": "sender",
          "type": "address"
        }
      ],
      "name": "ERC20InvalidSender",
      "type": "error"
    },
    {
      "inputs": [
        {
          "internalType": "address",
          "name": "spender",
          "type": "address"
        }
      ],
      "name": "ERC20InvalidSpender",
      "type": "error"
    },
    {
      "inputs": [
        {
          "internalType": "address",
          "name": "owner",
          "type": "address"
        }
      ],
      "name": "OwnableInvalidOwner",
      "type": "error"
    },
    {
      "inputs": [
        {
          "internalType": "address",
          "name": "account",
          "type": "address"
        }
      ],
      "name": "OwnableUnauthorizedAccount",
      "type": "error"
    },
    {
      "anonymous": false,
      "inputs": [
        {
          "indexed": true,
          "internalType": "address",
          "name": "owner",
          "type": "address"
        },
        {
          "indexed": true,
          "internalType": "address",
          "name": "spender",
          "type": "address"
        },
        {
          "indexed": false,
          "internalType": "uint256",
          "name": "value",
          "type": "uint256"
        }
      ],
      "name": "Approval",
      "type": "event"
    },
    {
      "anonymous": false,
      "inputs": [
        {
          "indexed": true,
          "internalType": "address",
          "name": "previousOwner",
          "type": "address"
        },
        {
          "indexed": true,
          "internalType": "address",
          "name": "newOwner",
          "type": "address"
        }
      ],
      "name": "OwnershipTransferred",
      "type": "event"
    },
    {
      "anonymous": false,
      "inputs": [
        {
          "indexed": true,
          "internalType": "address",
          "name": "from",
          "type": "address"
        },
        {
          "indexed": true,
          "internalType": "address",
          "name": "to",
          "type": "address"
        },
        {
          "indexed": false,
          "internalType": "uint256",
          "name": "value",
          "type": "uint256"
        }
      ],
      "name": "Transfer",
      "type": "event"
    },
    {
      "inputs": [
        {
          "internalType": "address",
          "name": "owner",
          "type": "address"
        },
        {
          "internalType": "address",
          "name": "spender",
          "type": "address"
        }
      ],
      "name": "allowance",
      "outputs": [
        {
          "internalType": "uint256",
          "name": "",
          "type": "uint256"
        }
      ],
      "stateMutability": "view",
      "type": "function"
    },
    {
      "inputs": [
        {
          "internalType": "address",
          "name": "spender",
          "type": "address"
        },
        {
          "internalType": "uint256",
          "name": "value",
          "type": "uint256"
        }
      ],
      "name": "approve",
      "outputs": [
        {
          "internalType": "bool",
          "name": "",
          "type": "bool"
        }
      ],
      "stateMutability": "nonpayable",
      "type": "function"
    },
    {
      "inputs": [
        {
          "internalType": "address",
          "name": "account",
          "type": "address"
        }
      ],
      "name": "balanceOf",
      "outputs": [
        {
          "internalType": "uint256",
          "name": "",
          "type": "uint256"
        }
      ],
      "stateMutability": "view",
      "type": "function"
    },
    {
      "inputs": [
        {
          "internalType": "address",
          "name": "",
          "type": "address"
        }
      ],
      "name": "balances",
      "outputs": [
        {
          "internalType": "uint256",
          "name": "",
          "type": "uint256"
        }
      ],
      "stateMutability": "view",
      "type": "function"
    },
    {
      "inputs": [],
      "name": "decimals",
      "outputs": [
        {
          "internalType": "uint8",
          "name": "",
          "type": "uint8"
        }
      ],
      "stateMutability": "view",
      "type": "function"
    },
    {
      "inputs": [
        {
          "internalType": "address",
          "name": "user",
          "type": "address"
        },
        {
          "internalType": "uint256",
          "name": "amount",
          "type": "uint256"
        }
      ],
      "name": "mint",
      "outputs": [],
      "stateMutability": "nonpayable",
      "type": "function"
    },
    {
      "inputs": [],
      "name": "name",
      "outputs": [
        {
          "internalType": "string",
          "name": "",
          "type": "string"
        }
      ],
      "stateMutability": "view",
      "type": "function"
    },
    {
      "inputs": [],
      "name": "owner",
      "outputs": [
        {
          "internalType": "address",
          "name": "",
          "type": "address"
        }
      ],
      "stateMutability": "view",
      "type": "function"
    },
    {
      "inputs": [],
      "name": "renounceOwnership",
      "outputs": [],
      "stateMutability": "nonpayable",
      "type": "function"
    },
    {
      "inputs": [],
      "name": "symbol",
      "outputs": [
        {
          "internalType": "string",
          "name": "",
          "type": "string"
        }
      ],
      "stateMutability": "view",
      "type": "function"
    },
    {
      "inputs": [],
      "name": "totalSupply",
      "outputs": [
        {
          "internalType": "uint256",
          "name": "",
          "type": "uint256"
        }
      ],
      "stateMutability": "view",
      "type": "function"
    },
    {
      "inputs": [
        {
          "internalType": "address",
          "name": "to",
          "type": "address"
        },
        {
          "internalType": "uint256",
          "name": "value",
          "type": "uint256"
        }
      ],
      "name": "transfer",
      "outputs": [
        {
          "internalType": "bool",
          "name": "",
          "type": "bool"
        }
      ],
      "stateMutability": "nonpayable",
      "type": "function"
    },
    {
      "inputs": [
        {
          "internalType": "address",
          "name": "from",
          "type": "address"
        },
        {
          "internalType": "address",
          "name": "to",
          "type": "address"
        },
        {
          "internalType": "uint256",
          "name": "value",
          "type": "uint256"
        }
      ],
      "name": "transferFrom",
      "outputs": [
        {
          "internalType": "bool",
          "name": "",
          "type": "bool"
        }
      ],
      "stateMutability": "nonpayable",
      "type": "function"
    },
    {
      "inputs": [
        {
          "internalType": "address",
          "name": "newOwner",
          "type": "address"
        }
      ],
      "name": "transferOwnership",
      "outputs": [],
      "stateMutability": "nonpayable",
      "type": "function"
    }
  ],
  "bytecode": "0x60806040523480156200001157600080fd5b50336040518060400160405280600c81526020016b29ba30b5b4b733aa37b5b2b760a11b8152506040518060400160405280600281526020016114d560f21b81525081600390816200006491906200034a565b5060046200007382826200034a565b5050506001600160a01b038116620000a657604051631e4fbdf760e01b8152600060048201526024015b60405180910390fd5b620000b181620000e0565b50620000da33620000c56012600a6200052b565b620000d490620186a062000543565b62000132565b62000573565b600580546001600160a01b038381166001600160a01b0319831681179093556040519116919082907f8be0079c531659141344cd1fd0a4f28419497f9722a3daafe3b4186f6b6457e090600090a35050565b6001600160a01b0382166200015e5760405163ec442f0560e01b8152600060048201526024016200009d565b6200016c6000838362000170565b5050565b6001600160a01b0383166200019f5780600260008282546200019391906200055d565b90915550620002139050565b6001600160a01b03831660009081526020819052604090205481811015620001f45760405163391434e360e21b81526001600160a01b038516600482015260248101829052604481018390526064016200009d565b6001600160a01b03841660009081526020819052604090209082900390555b6001600160a01b038216620002315760028054829003905562000250565b6001600160a01b03821660009081526020819052604090208054820190555b816001600160a01b0316836001600160a01b03167fddf252ad1be2c89b69c2b068fc378daa952ba7f163c4a11628f55a4df523b3ef836040516200029691815260200190565b60405180910390a3505050565b634e487b7160e01b600052604160045260246000fd5b600181811c90821680620002ce57607f821691505b602082108103620002ef57634e487b7160e01b600052602260045260246000fd5b50919050565b601f82111562000345576000816000526020600020601f850160051c81016020861015620003205750805b601f850160051c820191505b8181101562000341578281556001016200032c565b5050505b505050565b81516001600160401b03811115620003665762000366620002a3565b6200037e81620003778454620002b9565b84620002f5565b602080601f831160018114620003b657600084156200039d5750858301515b600019600386901b1c1916600185901b17855562000341565b600085815260208120601f198616915b82811015620003e757888601518255948401946001909101908401620003c6565b5085821015620004065787850151600019600388901b60f8161c191681555b5050505050600190811b01905550565b634e487b7160e01b600052601160045260246000fd5b600181815b808511156200046d57816000190482111562000451576200045162000416565b808516156200045f57918102915b93841c939080029062000431565b509250929050565b600082620004865750600162000525565b81620004955750600062000525565b8160018114620004ae5760028114620004b957620004d9565b600191505062000525565b60ff841115620004cd57620004cd62000416565b50506001821b62000525565b5060208310610133831016604e8410600b8410161715620004fe575081810a62000525565b6200050a83836200042c565b806000190482111562000521576200052162000416565b0290505b92915050565b60006200053c60ff84168362000475565b9392505050565b808202811582820484141762000525576200052562000416565b8082018082111562000525576200052562000416565b61090180620005836000396000f3fe608060405234801561001057600080fd5b50600436106100ea5760003560e01c806370a082311161008c57806395d89b411161006657806395d89b41146101e5578063a9059cbb146101ed578063dd62ed3e14610200578063f2fde38b1461023957600080fd5b806370a0823114610199578063715018a6146101c25780638da5cb5b146101ca57600080fd5b806323b872dd116100c857806323b872dd1461014257806327e235e314610155578063313ce5671461017557806340c10f191461018457600080fd5b806306fdde03146100ef578063095ea7b31461010d57806318160ddd14610130575b600080fd5b6100f761024c565b604051610104919061074a565b60405180910390f35b61012061011b3660046107b5565b6102de565b6040519015158152602001610104565b6002545b604051908152602001610104565b6101206101503660046107df565b6102f8565b61013461016336600461081b565b60066020526000908152604090205481565b60405160128152602001610104565b6101976101923660046107b5565b61031c565b005b6101346101a736600461081b565b6001600160a01b031660009081526020819052604090205490565b610197610332565b6005546040516001600160a01b039091168152602001610104565b6100f7610346565b6101206101fb3660046107b5565b610355565b61013461020e36600461083d565b6001600160a01b03918216600090815260016020908152604080832093909416825291909152205490565b61019761024736600461081b565b610363565b60606003805461025b90610870565b80601f016020809104026020016040519081016040528092919081815260200182805461028790610870565b80156102d45780601f106102a9576101008083540402835291602001916102d4565b820191906000526020600020905b8154815290600101906020018083116102b757829003601f168201915b5050505050905090565b6000336102ec8185856103a6565b60019150505b92915050565b6000336103068582856103b8565b610311858585610437565b506001949350505050565b610324610496565b61032e82826104c3565b5050565b61033a610496565b61034460006104f9565b565b60606004805461025b90610870565b6000336102ec818585610437565b61036b610496565b6001600160a01b03811661039a57604051631e4fbdf760e01b8152600060048201526024015b60405180910390fd5b6103a3816104f9565b50565b6103b3838383600161054b565b505050565b6001600160a01b03838116600090815260016020908152604080832093861683529290522054600019811015610431578181101561042257604051637dc7a0d960e11b81526001600160a01b03841660048201526024810182905260448101839052606401610391565b6104318484848403600061054b565b50505050565b6001600160a01b03831661046157604051634b637e8f60e11b815260006004820152602401610391565b6001600160a01b03821661048b5760405163ec442f0560e01b815260006004820152602401610391565b6103b3838383610620565b6005546001600160a01b031633146103445760405163118cdaa760e01b8152336004820152602401610391565b6001600160a01b0382166104ed5760405163ec442f0560e01b815260006004820152602401610391565b61032e60008383610620565b600580546001600160a01b038381166001600160a01b0319831681179093556040519116919082907f8be0079c531659141344cd1fd0a4f28419497f9722a3daafe3b4186f6b6457e090600090a35050565b6001600160a01b0384166105755760405163e602df0560e01b815260006004820152602401610391565b6001600160a01b03831661059f57604051634a1406b160e11b815260006004820152602401610391565b6001600160a01b038085166000908152600160209081526040808320938716835292905220829055801561043157826001600160a01b0316846001600160a01b03167f8c5be1e5ebec7d5bd14f71427d1e84f3dd0314c0f7b2291e5b200ac8c7c3b9258460405161061291815260200190565b60405180910390a350505050565b6001600160a01b03831661064b57806002600082825461064091906108aa565b909155506106bd9050565b6001600160a01b0383166000908152602081905260409020548181101561069e5760405163391434e360e21b81526001600160a01b03851660048201526024810182905260448101839052606401610391565b6001600160a01b03841660009081526020819052604090209082900390555b6001600160a01b0382166106d9576002805482900390556106f8565b6001600160a01b03821660009081526020819052604090208054820190555b816001600160a01b0316836001600160a01b03167fddf252ad1be2c89b69c2b068fc378daa952ba7f163c4a11628f55a4df523b3ef8360405161073d91815260200190565b60405180910390a3505050565b60006020808352835180602085015260005b818110156107785785810183015185820160400152820161075c565b506000604082860101526040601f19601f8301168501019250505092915050565b80356001600160a01b03811681146107b057600080fd5b919050565b600080604083850312156107c857600080fd5b6107d183610799565b946020939093013593505050565b6000806000606084860312156107f457600080fd5b6107fd84610799565b925061080b60208501610799565b9150604084013590509250925092565b60006020828403121561082d57600080fd5b61083682610799565b9392505050565b6000806040838503121561085057600080fd5b61085983610799565b915061086760208401610799565b90509250929050565b600181811c9082168061088457607f821691505b6020821081036108a457634e487b7160e01b600052602260045260246000fd5b50919050565b808201808211156102f257634e487b7160e01b600052601160045260246000fdfea2646970667358221220bc95a7782ba0ded04ee8e4df8d2b92841df4af4054fb372cb7a6ee7c0d9c53f164736f6c63430008180033",
  "linkReferences": {},
  "deployedLinkReferences": {}
}